:100000000C944A000C9454000C9454000C9454002A
:100010000C9454000C9454000C9454000C94540010
:100020000C9454000C9454000C9454000C94540000
:100030000C9454000C9454000C9454000C945400F0
:100040000C9454000C9454000C9454000C945400E0
:100050000C9454000C9454000C9454000C945400D0
:100060000C9454000C9454000C9454000C945400C0
:100070000C9454000C9454000C9454000C945400B0
:100080000C9454000C9454000C9454000C945400A0
:100090000C94540011241FBECFEFCDBFDFE7DEBFAD
:1000A0000E9456000C946B000C94000081E0809339
:1000B000000493E19093010A2FEF30E02093260A89
:1000C0003093270A20E430E02093280A3093290A4D
:0A00D0008093000AFFCFF894FFCFE1
:00000001FF
