:100000000C9434000C943E000C943E000C943E0082
:100010000C943E000C943E000C943E000C943E0068
:100020000C943E000C943E000C943E000C943E0058
:100030000C943E000C943E000C943E000C943E0048
:100040000C943E000C943E000C943E000C943E0038
:100050000C943E000C943E000C943E000C943E0028
:100060000C943E000C943E0011241FBECFEFD4E050
:10007000DEBFCDBF0E9440000C9458000C940000DD
:10008000209A2198299A91E0199B0AC085B1892765
:1000900085B9E7ECF0E03197F1F700C00000F4CF4C
:1000A00085B1892785B9E7EEF3E03197F1F7F5CF10
:0400B000F894FFCFF2
:00000001FF
