:100000000C9434000C943E000C943E000C943E0082
:100010000C943E000C943E000C943E000C943E0068
:100020000C943E000C943E000C943E000C943E0058
:100030000C943E000C943E000C943E000C943E0048
:100040000C943E000C943E000C943E000C943E0038
:100050000C943E000C943E000C943E000C943E0028
:100060000C943E000C943E0011241FBECFEFD8E04C
:10007000DEBFCDBF0E9440000C94C9000C9400006C
:10008000CF93DF93CDB7DEB764970FB6F894DEBF9A
:100090000FBECDBF8FEF84B987B988EE93E09A8BFE
:1000A000898B84EF91E0988B8F8780EA96E8A1E0B6
:1000B000B0E089879A87AB87BC8780E593ECA0E0A6
:1000C000B0E08D839E83AF83B88789899A892F8515
:1000D0003889820F931F9E878D878D859E8585B970
:1000E0008D859E8598B989899A892F853889821B43
:1000F000930B9E878D878D859E8585B98D859E8581
:1001000098B98AE08C8B84E18B8B8C899B89899F41
:10011000802D112485B989899A896F8578890E94F3
:10012000B5007E876D878D859E8585B989859A8581
:10013000AB85BC854D815E816F817885840F951F6D
:10014000A61FB71F89839A83AB83BC8389819A8159
:10015000AB81BC8185B989819A81AB81BC81892FB2
:100160009A2FAB2FBB2788B9FFCFAA1BBB1B51E12E
:1001700007C0AA1FBB1FA617B70710F0A61BB70B17
:10018000881F991F5A95A9F780959095BC01CD01BC
:060190000895F894FFCF72
:00000001FF
