:100000000C9434000C9451000C9451000C94510049
:100010000C9451000C9451000C9451000C9451001C
:100020000C9451000C9451000C9451000C9451000C
:100030000C9451000C9451000C9451000C945100FC
:100040000C9451000C9451000C9453000C947D00BE
:100050000C9451000C9451000C9451000C945100DC
:100060000C9451000C94510011241FBECFEFD8E026
:10007000DEBFCDBF11E0A0E0B1E0E8EEF1E002C0EC
:1000800005900D92AC30B107D9F721E0ACE0B1E0BA
:1000900001C01D92A035B207E1F70E94C5000C9483
:1000A000F2000C9400001F920F920FB60F921124D1
:1000B0002F933F938F939F93EF93FF932091C600CD
:1000C00080910F0190E001968F71992730910E0178
:1000D000381741F0E0910F01F0E0E05FFE4F208320
:1000E00080930F01FF91EF919F918F913F912F91FD
:1000F0000F900FBE0F901F9018951F920F920FB682
:100100000F9211248F939F93EF93FF9390910C0183
:1001100080910D019817C9F0E0910C01F0E0E05DCD
:10012000FE4F80818093C60080910C0190E0019683
:100130008F71992780930C01FF91EF919F918F917F
:100140000F900FBE0F901F9018958091C1008F7D6A
:100150008093C100F1CF20910D0130E02F5F3F4F20
:100160002F713327922F40910C014917E1F3E09151
:100170000D01F0E0E05DFE4F808320930D01809142
:10018000C10080628093C10008951092C50089E18A
:100190008093C40088E98093C10086E08093C20008
:1001A0007894C0E0D1E08991811119C090910E013D
:1001B00080910F019817D1F3E0910E01F0E0E05F1C
:1001C000FE4F808120910E0130E02F5F3F4F2F7155
:1001D000332720930E018F5F0E94AB00E7CF0E9470
:0801E000AB00E1CFF894FFCF62
:0C01E80056696F4156522D4F4B0A000023
:00000001FF
