:100000000C9434000C9449000C9449000C94490061
:100010000C9449000C9449000C9449000C9449003C
:100020000C9449000C9449000C9449000C9449002C
:100030000C9449000C9449000C9449000C9449001C
:100040000C9449000C9449000C9449000C9449000C
:100050000C9449000C9449000C9449000C944900FC
:100060000C9449000C94490011241FBECFEFD8E036
:10007000DEBFCDBF11E0A0E0B1E0E0E2F1E002C000
:1000800005900D92A831B107D9F70E944B000C944E
:100090008E000C940000CDB7DEB768970FB6F894C9
:1000A000DEBF0FBECDBF28E1E0E0F1E0CE0101965A
:1000B000DC0101900D922A95E1F71092C50022E033
:1000C0002093C40026E02093C20028E02093C100C2
:1000D000382F492F2AE09DE0E32FF42F81918111E1
:1000E00016C08091C00085FFFCCF2093C600809190
:1000F000C00085FFFCCF9093C6005FEF6FE583E003
:10010000515060408040E1F700C00000E5CF5091C1
:10011000C00055FFFCCF8093C600E0CFF894FFCF1E
:1001200048656C6C6F2066726F6D2041546D656719
:08013000613332387020200019
:00000001FF
