:100000000C9450000C9459000C9459000C94590015
:100010000C9459000C9459000C9459000C945900FC
:100020000C9459000C9459000C9459000C945900EC
:100030000C9459000C9459000C9459000C945900DC
:100040000C9459000C9459000C9459000C945900CC
:100050000C9459000C9459000C9459000C945900BC
:100060000C9459000C9459000C9459000C945900AC
:100070000C9459000C9459000C9459000C9459009C
:100080000C9459000C9459000C9459000C9459008C
:100090000C9459000C9459000C9459000C9459007C
:1000A00011241FBECFEFCDBFDFE3DEBF04D00C9421
:1000B00082000C94000000D000D0CDB7DEB7809154
:1000C000000481608093000421E080910404822771
:1000D0008093040419821A821B821C8289819A816E
:1000E000AB81BC81C297A105B10578F789819A815E
:1000F000AB81BC810196A11DB11D89839A83AB831D
:08010000BC83ECCFF894FFCFA3
:00000001FF
