:100000000C9450000C945A000C945A000C945A0012
:100010000C945A000C945A000C945A000C945A00F8
:100020000C945A000C945A000C945A000C945A00E8
:100030000C945A000C945A000C945A000C945A00D8
:100040000C945A000C945A000C945A000C945A00C8
:100050000C945A000C945A000C945C000C945A00B6
:100060000C945A000C945A000C945A000C945A00A8
:100070000C945A000C945A000C945A000C945A0098
:100080000C945A000C945A000C945A000C945A0088
:100090000C945A000C945A000C945A000C945A0078
:1000A00011241FBECFEFCDBFDFE3DEBF0E946F0084
:1000B0000C9493000C9400008F939F93EF93FF9305
:1000C000E0E0F6E0808991898093280A9093290ADC
:1000D00081E08387FF91EF919F918F91189581E047
:1000E000809300048093000A90E19093010A2FEF1F
:1000F0003FEF2093260A3093270A20E030E8209330
:10010000280A3093290A1092010690E5909302067E
:1001100093E0909300061092060680930806809361
:0A0120000A067894FFCFF894FFCF91
:00000001FF
