:100000000C9466000C9472000C9472000C947200B4
:100010000C9472000C9472000C9472000C94720098
:100020000C9472000C9472000C9472000C94720088
:100030000C9472000C9472000C9472000C94720078
:100040000C9472000C9472000C9472000C94720068
:100050000C9472000C9472000C9472000C94720058
:100060000C9472000C9472000C9472000C94720048
:100070000C9472000C9472000C9472000C94720038
:100080000C9472000C9472000C9472000C94720028
:100090000C9472000C9472000C9472000C94720018
:1000A0000C9472000C9472000C9472000C94720008
:1000B0000C9472000C9472000C9472000C947200F8
:1000C0000C9472000C9472000C94720011241FBEE8
:1000D000CFEFD1E2DEBFCDBF00E00CBF0E947400C5
:1000E0000C9495000C94000000D00F92CDB7DEB7B1
:1000F000089A21E082B1822782B919821A821B8272
:100100001C8289819A81AB81BC81C297A105B1050E
:1001100088F789819A81AB81BC810196A11DB11DAF
:0E01200089839A83AB83BC83ECCFF894FFCF26
:00000001FF
