:100000000C9440000C944A000C944A000C944A0052
:100010000C944A000C944A000C944A000C944A0038
:100020000C944A000C944A000C944A000C944A0028
:100030000C944A000C944A000C944A000C944A0018
:100040000C944A000C944A000C944A000C944A0008
:100050000C944A000C944A000C944A000C944A00F8
:100060000C944A000C944A000C944A000C944A00E8
:100070000C944A000C944A000C944A000C944A00D8
:1000800011241FBECFEFD4E0DEBFCDBF0E944C00D5
:100090000C946D000C94000000D000D0CDB7DEB7FA
:1000A000209A21E085B1822785B919821A821B82A4
:1000B0001C8289819A81AB81BC81C297A105B1055F
:1000C00088F789819A81AB81BC810196A11DB11D00
:0E00D00089839A83AB83BC83ECCFF894FFCF77
:00000001FF
