:100000000C945A000C9464000C9464000C946400EA
:100010000C9464000C9464000C9464000C946400D0
:100020000C9464000C9464000C9464000C946400C0
:100030000C9464000C9464000C9464000C946400B0
:100040000C9464000C9464000C9464000C946400A0
:100050000C9464000C9464000C9464000C94640090
:100060000C9464000C9464000C9464000C94640080
:100070000C9464000C9464000C9464000C94640070
:100080000C9464000C9464000C9464000C94640060
:100090000C9464000C9464000C9464000C94640050
:1000A0000C9464000C9464000C9464000C94640040
:1000B0000C94640011241FBECFEFD8E0DEBFCDBF8B
:1000C0000E9466000C9487000C94000000D000D0C1
:1000D000CDB7DEB7209A21E085B1822785B9198294
:1000E0001A821B821C8289819A81AB81BC81C29752
:1000F000A105B10588F789819A81AB81BC81019600
:10010000A11DB11D89839A83AB83BC83ECCFF89486
:02011000FFCF1F
:00000001FF
