:100000000C942A000C9434000C9434000C943400AA
:100010000C9434000C9434000C9434000C94340090
:100020000C9434000C9434000C9434000C94340080
:100030000C9434000C9434000C9434000C94340070
:100040000C9434000C9434000C9434000C94340060
:100050000C94340011241FBECFE5D8E0DEBFCDBF25
:100060000E9436000C9457000C94000000D000D081
:10007000CDB7DEB7B89A21E088B3822788BB198252
:100080001A821B821C8289819A81AB81BC81C297B2
:10009000A105B10588F789819A81AB81BC81019660
:1000A000A11DB11D89839A83AB83BC83ECCFF894E7
:0200B000FFCF80
:00000001FF
