:100000001AC021C020C01FC01EC01DC01CC01BC004
:100010001AC019C018C017C016C015C014C013C02C
:1000200012C011C010C00FC00EC00DC00CC00BC05C
:100030000AC009C008C011241FBECFEFD2E0DEBF46
:10004000CDBF02D022C0DCCF00D000D0CDB7DEB70C
:10005000209A21E085B1822785B919821A821B82F4
:100060001C8289819A81AB81BC81C297A105B105AF
:1000700088F789819A81AB81BC810196A11DB11D50
:0E00800089839A83AB83BC83ECCFF894FFCFC7
:00000001FF
