:100000000C9450000C945A000C945A000C945A0012
:100010000C945A000C945A000C945A000C945A00F8
:100020000C945A000C945A000C945A000C945A00E8
:100030000C945C000C945A000C945A000C945A00D6
:100040000C945A000C945A000C945A000C945A00C8
:100050000C945A000C945A000C945A000C945A00B8
:100060000C945A000C945A000C945A000C945A00A8
:100070000C945A000C945A000C945A000C945A0098
:100080000C945A000C945A000C945A000C945A0088
:100090000C945A000C945A000C945A000C945A0078
:1000A00011241FBECFEFCDBFDFE3DEBF0E9466008D
:1000B0000C948C000C9400008F9380918C0A809398
:1000C000440481E08093860A8F9118958FEF809386
:1000D000400481E08093440493E09093820620E8FA
:1000E0002093840621E42093800620E2209391014E
:1000F00022E02093B4011092800A9093810A8093A9
:10010000840A8093850A8093860A8091800A8160A0
:0C0110008093800A7894FFCFF894FFCF12
:00000001FF
