:100000000C9440000C944A000C944A000C944A0052
:100010000C944A000C944A000C944A000C944A0038
:100020000C944A000C944A000C944A000C944A0028
:100030000C944A000C944A000C944A000C944A0018
:100040000C944A000C944A000C944A000C944A0008
:100050000C944A000C944A000C944A000C944A00F8
:100060000C944A000C944A000C944A000C944A00E8
:100070000C944A000C944A000C944A000C944A00D8
:1000800011241FBECFEFD4E0DEBFCDBF0E946E00B3
:100090000C947B000C94000080E480937C0087E843
:1000A00080937A00089590917C00907F8F70982BB8
:1000B00090937C0080917A00806480937A00809194
:1000C0007A0086FDFCCF80917800909179000895A8
:1000D000279A83E884BD83E085BD08950E944C0083
:1000E0000E94680080E00E9453009695879596953F
:0A00F000879587BDF7CFF894FFCF86
:00000001FF
