:100000000C9434000C9449000C9449000C94490061
:100010000C9449000C9449000C9449000C9449003C
:100020000C9449000C9449000C9449000C9449002C
:100030000C9449000C9449000C9449000C9449001C
:100040000C9449000C9449000C9449000C9449000C
:100050000C9449000C9449000C9449000C944900FC
:100060000C9449000C94490011241FBECFEFD8E036
:10007000DEBFCDBF11E0A0E0B1E0E4EEF0E002C0F1
:1000800005900D92A630B107D9F70E945E000C943E
:1000900070000C9400001092C50087E68093C400A5
:1000A00088E08093C10086E08093C200089590911B
:1000B000C00095FFFCCF8093C60008950E944B00BE
:1000C0008FE99FE00197F1F700C00000C0E0D1E0A8
:1000D00089910E94570091E0C530D907C9F7FFCF39
:0400E000F894FFCFC2
:0600E40048656C6C6F0022
:00000001FF
