:100000000C9444000C944E000C944E000C944E0042
:100010000C944E000C944E000C944E000C944E0028
:100020000C944E000C944E000C944E000C944E0018
:100030000C944E000C944E000C944E000C944E0008
:100040000C944E000C944E000C944E000C944E00F8
:100050000C944E000C944E000C944E000C944E00E8
:100060000C944E000C944E001BC0000000000000D9
:100070000000000000000000000000000000000080
:10008000000000002AEA189511241FBECFEFD8E027
:10009000DEBFCDBF0E9450000C9461000C940000A4
:1000A00008E00EBF0FEF0DBF00E107BD02E00093B7
:1000B0006E00789401E003BF01E005BD889515E569
:0600C000EFCFF894FFCF22
:00000001FF
