:100000000C943E000C9448000C9448000C9448005A
:100010000C9448000C9448000C9448000C94480040
:100020000C9448000C9448000C9448000C94480030
:100030000C9448000C9448000C9448000C94480020
:100040000C9448000C9448000C9448000C94480010
:100050000C9448000C9448000C9448000C94480000
:100060000C9448000C9448000C9448000C944800F0
:100070000C9448000C9448000C94480011241FBEB6
:10008000CFEFCDBFDFE3DEBF0E944A000C947100CA
:100090000C94000000D000D0CDB7DEB780910004F2
:1000A00081608093000421E0809104048227809382
:1000B000040419821A821B821C8289819A81AB8175
:1000C000BC81C297A105B10578F789819A81AB817E
:1000D000BC810196A11DB11D89839A83AB83BC832A
:0600E000ECCFF894FFCF05
:00000001FF
